{
  "_format": "hh-sol-artifact-1",
  "contractName": "MentorshipNFT",
  "sourceName": "src/contracts/MentorshipNFT.sol",
  "abi": [
    {
      "inputs": [],
      "stateMutability": "nonpayable",
      "type": "constructor"
    },
    {
      "inputs": [
        {
          "internalType": "address",
          "name": "sender",
          "type": "address"
        },
        {
          "internalType": "uint256",
          "name": "tokenId",
          "type": "uint256"
        },
        {
          "internalType": "address",
          "name": "owner",
          "type": "address"
        }
      ],
      "name": "ERC721IncorrectOwner",
      "type": "error"
    },
    {
      "inputs": [
        {
          "internalType": "address",
          "name": "operator",
          "type": "address"
        },
        {
          "internalType": "uint256",
          "name": "tokenId",
          "type": "uint256"
        }
      ],
      "name": "ERC721InsufficientApproval",
      "type": "error"
    },
    {
      "inputs": [
        {
          "internalType": "address",
          "name": "approver",
          "type": "address"
        }
      ],
      "name": "ERC721InvalidApprover",
      "type": "error"
    },
    {
      "inputs": [
        {
          "internalType": "address",
          "name": "operator",
          "type": "address"
        }
      ],
      "name": "ERC721InvalidOperator",
      "type": "error"
    },
    {
      "inputs": [
        {
          "internalType": "address",
          "name": "owner",
          "type": "address"
        }
      ],
      "name": "ERC721InvalidOwner",
      "type": "error"
    },
    {
      "inputs": [
        {
          "internalType": "address",
          "name": "receiver",
          "type": "address"
        }
      ],
      "name": "ERC721InvalidReceiver",
      "type": "error"
    },
    {
      "inputs": [
        {
          "internalType": "address",
          "name": "sender",
          "type": "address"
        }
      ],
      "name": "ERC721InvalidSender",
      "type": "error"
    },
    {
      "inputs": [
        {
          "internalType": "uint256",
          "name": "tokenId",
          "type": "uint256"
        }
      ],
      "name": "ERC721NonexistentToken",
      "type": "error"
    },
    {
      "inputs": [
        {
          "internalType": "address",
          "name": "owner",
          "type": "address"
        }
      ],
      "name": "OwnableInvalidOwner",
      "type": "error"
    },
    {
      "inputs": [
        {
          "internalType": "address",
          "name": "account",
          "type": "address"
        }
      ],
      "name": "OwnableUnauthorizedAccount",
      "type": "error"
    },
    {
      "anonymous": false,
      "inputs": [
        {
          "indexed": true,
          "internalType": "uint256",
          "name": "tokenId",
          "type": "uint256"
        },
        {
          "indexed": true,
          "internalType": "address",
          "name": "student",
          "type": "address"
        },
        {
          "indexed": false,
          "internalType": "string",
          "name": "title",
          "type": "string"
        },
        {
          "indexed": false,
          "internalType": "uint256",
          "name": "sessionId",
          "type": "uint256"
        },
        {
          "indexed": false,
          "internalType": "address",
          "name": "mentor",
          "type": "address"
        }
      ],
      "name": "AchievementMinted",
      "type": "event"
    },
    {
      "anonymous": false,
      "inputs": [
        {
          "indexed": true,
          "internalType": "address",
          "name": "owner",
          "type": "address"
        },
        {
          "indexed": true,
          "internalType": "address",
          "name": "approved",
          "type": "address"
        },
        {
          "indexed": true,
          "internalType": "uint256",
          "name": "tokenId",
          "type": "uint256"
        }
      ],
      "name": "Approval",
      "type": "event"
    },
    {
      "anonymous": false,
      "inputs": [
        {
          "indexed": true,
          "internalType": "address",
          "name": "owner",
          "type": "address"
        },
        {
          "indexed": true,
          "internalType": "address",
          "name": "operator",
          "type": "address"
        },
        {
          "indexed": false,
          "internalType": "bool",
          "name": "approved",
          "type": "bool"
        }
      ],
      "name": "ApprovalForAll",
      "type": "event"
    },
    {
      "anonymous": false,
      "inputs": [
        {
          "indexed": true,
          "internalType": "address",
          "name": "previousOwner",
          "type": "address"
        },
        {
          "indexed": true,
          "internalType": "address",
          "name": "newOwner",
          "type": "address"
        }
      ],
      "name": "OwnershipTransferred",
      "type": "event"
    },
    {
      "anonymous": false,
      "inputs": [
        {
          "indexed": true,
          "internalType": "address",
          "name": "from",
          "type": "address"
        },
        {
          "indexed": true,
          "internalType": "address",
          "name": "to",
          "type": "address"
        },
        {
          "indexed": true,
          "internalType": "uint256",
          "name": "tokenId",
          "type": "uint256"
        }
      ],
      "name": "Transfer",
      "type": "event"
    },
    {
      "inputs": [
        {
          "internalType": "uint256",
          "name": "",
          "type": "uint256"
        }
      ],
      "name": "achievements",
      "outputs": [
        {
          "internalType": "string",
          "name": "title",
          "type": "string"
        },
        {
          "internalType": "string",
          "name": "description",
          "type": "string"
        },
        {
          "internalType": "uint256",
          "name": "sessionId",
          "type": "uint256"
        },
        {
          "internalType": "address",
          "name": "mentor",
          "type": "address"
        },
        {
          "internalType": "uint256",
          "name": "timestamp",
          "type": "uint256"
        }
      ],
      "stateMutability": "view",
      "type": "function"
    },
    {
      "inputs": [
        {
          "internalType": "address",
          "name": "to",
          "type": "address"
        },
        {
          "internalType": "uint256",
          "name": "tokenId",
          "type": "uint256"
        }
      ],
      "name": "approve",
      "outputs": [],
      "stateMutability": "nonpayable",
      "type": "function"
    },
    {
      "inputs": [
        {
          "internalType": "address",
          "name": "",
          "type": "address"
        }
      ],
      "name": "authorizedMinters",
      "outputs": [
        {
          "internalType": "bool",
          "name": "",
          "type": "bool"
        }
      ],
      "stateMutability": "view",
      "type": "function"
    },
    {
      "inputs": [
        {
          "internalType": "address",
          "name": "owner",
          "type": "address"
        }
      ],
      "name": "balanceOf",
      "outputs": [
        {
          "internalType": "uint256",
          "name": "",
          "type": "uint256"
        }
      ],
      "stateMutability": "view",
      "type": "function"
    },
    {
      "inputs": [
        {
          "internalType": "uint256",
          "name": "tokenId",
          "type": "uint256"
        }
      ],
      "name": "exists",
      "outputs": [
        {
          "internalType": "bool",
          "name": "",
          "type": "bool"
        }
      ],
      "stateMutability": "view",
      "type": "function"
    },
    {
      "inputs": [
        {
          "internalType": "uint256",
          "name": "tokenId",
          "type": "uint256"
        }
      ],
      "name": "getAchievement",
      "outputs": [
        {
          "internalType": "string",
          "name": "title",
          "type": "string"
        },
        {
          "internalType": "string",
          "name": "description",
          "type": "string"
        },
        {
          "internalType": "uint256",
          "name": "sessionId",
          "type": "uint256"
        },
        {
          "internalType": "address",
          "name": "mentor",
          "type": "address"
        },
        {
          "internalType": "uint256",
          "name": "timestamp",
          "type": "uint256"
        }
      ],
      "stateMutability": "view",
      "type": "function"
    },
    {
      "inputs": [
        {
          "internalType": "uint256",
          "name": "tokenId",
          "type": "uint256"
        }
      ],
      "name": "getApproved",
      "outputs": [
        {
          "internalType": "address",
          "name": "",
          "type": "address"
        }
      ],
      "stateMutability": "view",
      "type": "function"
    },
    {
      "inputs": [
        {
          "internalType": "address",
          "name": "owner",
          "type": "address"
        },
        {
          "internalType": "address",
          "name": "operator",
          "type": "address"
        }
      ],
      "name": "isApprovedForAll",
      "outputs": [
        {
          "internalType": "bool",
          "name": "",
          "type": "bool"
        }
      ],
      "stateMutability": "view",
      "type": "function"
    },
    {
      "inputs": [
        {
          "internalType": "address",
          "name": "student",
          "type": "address"
        },
        {
          "internalType": "string",
          "name": "title",
          "type": "string"
        },
        {
          "internalType": "string",
          "name": "description",
          "type": "string"
        },
        {
          "internalType": "uint256",
          "name": "sessionId",
          "type": "uint256"
        },
        {
          "internalType": "address",
          "name": "mentor",
          "type": "address"
        }
      ],
      "name": "mintAchievement",
      "outputs": [
        {
          "internalType": "uint256",
          "name": "",
          "type": "uint256"
        }
      ],
      "stateMutability": "nonpayable",
      "type": "function"
    },
    {
      "inputs": [],
      "name": "name",
      "outputs": [
        {
          "internalType": "string",
          "name": "",
          "type": "string"
        }
      ],
      "stateMutability": "view",
      "type": "function"
    },
    {
      "inputs": [],
      "name": "owner",
      "outputs": [
        {
          "internalType": "address",
          "name": "",
          "type": "address"
        }
      ],
      "stateMutability": "view",
      "type": "function"
    },
    {
      "inputs": [
        {
          "internalType": "uint256",
          "name": "tokenId",
          "type": "uint256"
        }
      ],
      "name": "ownerOf",
      "outputs": [
        {
          "internalType": "address",
          "name": "",
          "type": "address"
        }
      ],
      "stateMutability": "view",
      "type": "function"
    },
    {
      "inputs": [],
      "name": "renounceOwnership",
      "outputs": [],
      "stateMutability": "nonpayable",
      "type": "function"
    },
    {
      "inputs": [
        {
          "internalType": "address",
          "name": "from",
          "type": "address"
        },
        {
          "internalType": "address",
          "name": "to",
          "type": "address"
        },
        {
          "internalType": "uint256",
          "name": "tokenId",
          "type": "uint256"
        }
      ],
      "name": "safeTransferFrom",
      "outputs": [],
      "stateMutability": "nonpayable",
      "type": "function"
    },
    {
      "inputs": [
        {
          "internalType": "address",
          "name": "from",
          "type": "address"
        },
        {
          "internalType": "address",
          "name": "to",
          "type": "address"
        },
        {
          "internalType": "uint256",
          "name": "tokenId",
          "type": "uint256"
        },
        {
          "internalType": "bytes",
          "name": "data",
          "type": "bytes"
        }
      ],
      "name": "safeTransferFrom",
      "outputs": [],
      "stateMutability": "nonpayable",
      "type": "function"
    },
    {
      "inputs": [
        {
          "internalType": "address",
          "name": "operator",
          "type": "address"
        },
        {
          "internalType": "bool",
          "name": "approved",
          "type": "bool"
        }
      ],
      "name": "setApprovalForAll",
      "outputs": [],
      "stateMutability": "nonpayable",
      "type": "function"
    },
    {
      "inputs": [
        {
          "internalType": "address",
          "name": "minter",
          "type": "address"
        },
        {
          "internalType": "bool",
          "name": "status",
          "type": "bool"
        }
      ],
      "name": "setMinterRole",
      "outputs": [],
      "stateMutability": "nonpayable",
      "type": "function"
    },
    {
      "inputs": [
        {
          "internalType": "bytes4",
          "name": "interfaceId",
          "type": "bytes4"
        }
      ],
      "name": "supportsInterface",
      "outputs": [
        {
          "internalType": "bool",
          "name": "",
          "type": "bool"
        }
      ],
      "stateMutability": "view",
      "type": "function"
    },
    {
      "inputs": [],
      "name": "symbol",
      "outputs": [
        {
          "internalType": "string",
          "name": "",
          "type": "string"
        }
      ],
      "stateMutability": "view",
      "type": "function"
    },
    {
      "inputs": [
        {
          "internalType": "uint256",
          "name": "tokenId",
          "type": "uint256"
        }
      ],
      "name": "tokenURI",
      "outputs": [
        {
          "internalType": "string",
          "name": "",
          "type": "string"
        }
      ],
      "stateMutability": "view",
      "type": "function"
    },
    {
      "inputs": [
        {
          "internalType": "address",
          "name": "from",
          "type": "address"
        },
        {
          "internalType": "address",
          "name": "to",
          "type": "address"
        },
        {
          "internalType": "uint256",
          "name": "tokenId",
          "type": "uint256"
        }
      ],
      "name": "transferFrom",
      "outputs": [],
      "stateMutability": "nonpayable",
      "type": "function"
    },
    {
      "inputs": [
        {
          "internalType": "address",
          "name": "newOwner",
          "type": "address"
        }
      ],
      "name": "transferOwnership",
      "outputs": [],
      "stateMutability": "nonpayable",
      "type": "function"
    }
  ],
  "bytecode": "0x60806040523480156200001157600080fd5b50336040518060400160405280601681526020017f4d656e746f727368697020416368696576656d656e74000000000000000000008152506040518060400160405280600481526020016309a8286960e31b8152508160009081620000779190620001c1565b506001620000868282620001c1565b5050506001600160a01b038116620000b857604051631e4fbdf760e01b81526000600482015260240160405180910390fd5b620000c381620000ca565b506200028d565b600680546001600160a01b038381166001600160a01b0319831681179093556040519116919082907f8be0079c531659141344cd1fd0a4f28419497f9722a3daafe3b4186f6b6457e090600090a35050565b634e487b7160e01b600052604160045260246000fd5b600181811c908216806200014757607f821691505b6020821081036200016857634e487b7160e01b600052602260045260246000fd5b50919050565b601f821115620001bc57600081815260208120601f850160051c81016020861015620001975750805b601f850160051c820191505b81811015620001b857828155600101620001a3565b5050505b505050565b81516001600160401b03811115620001dd57620001dd6200011c565b620001f581620001ee845462000132565b846200016e565b602080601f8311600181146200022d5760008415620002145750858301515b600019600386901b1c1916600185901b178555620001b8565b600085815260208120601f198616915b828110156200025e578886015182559484019460019091019084016200023d565b50858210156200027d5787850151600019600388901b60f8161c191681555b5050505050600190811b01905550565b612208806200029d6000396000f3fe608060405234801561001057600080fd5b50600436106101425760003560e01c80638da5cb5b116100b8578063c791fbda1161007c578063c791fbda146102bf578063c87b56dd146102d2578063cb177b1e146102e5578063e985e9c5146102f8578063f2ccc5431461030b578063f2fde38b1461031e57600080fd5b80638da5cb5b1461025d57806395d89b411461026e578063a22cb46514610276578063aa2fe91b14610289578063b88d4fde146102ac57600080fd5b806327aed72e1161010a57806327aed72e146101d757806342842e0e146101fb5780634f558e791461020e5780636352211e1461022157806370a0823114610234578063715018a61461025557600080fd5b806301ffc9a71461014757806306fdde031461016f578063081812fc14610184578063095ea7b3146101af57806323b872dd146101c4575b600080fd5b61015a61015536600461191e565b610331565b60405190151581526020015b60405180910390f35b610177610383565b6040516101669190611992565b6101976101923660046119a5565b610415565b6040516001600160a01b039091168152602001610166565b6101c26101bd3660046119da565b61043e565b005b6101c26101d2366004611a04565b61044d565b6101ea6101e53660046119a5565b6104dd565b604051610166959493929190611a40565b6101c2610209366004611a04565b610627565b61015a61021c3660046119a5565b610647565b61019761022f3660046119a5565b610652565b610247610242366004611a8c565b61065d565b604051908152602001610166565b6101c26106a5565b6006546001600160a01b0316610197565b6101776106b9565b6101c2610284366004611aa7565b6106c8565b61015a610297366004611a8c565b60096020526000908152604090205460ff1681565b6101c26102ba366004611b6f565b6106d3565b6102476102cd366004611c0b565b6106eb565b6101776102e03660046119a5565b61084d565b6101c26102f3366004611aa7565b610a80565b61015a610306366004611c9a565b610ab3565b6101ea6103193660046119a5565b610ae1565b6101c261032c366004611a8c565b610ca1565b60006001600160e01b031982166380ac58cd60e01b148061036257506001600160e01b03198216635b5e139f60e01b145b8061037d57506301ffc9a760e01b6001600160e01b03198316145b92915050565b60606000805461039290611ccd565b80601f01602080910402602001604051908101604052809291908181526020018280546103be90611ccd565b801561040b5780601f106103e05761010080835404028352916020019161040b565b820191906000526020600020905b8154815290600101906020018083116103ee57829003601f168201915b5050505050905090565b600061042082610cdf565b506000828152600460205260409020546001600160a01b031661037d565b610449828233610d18565b5050565b6001600160a01b03821661047c57604051633250574960e11b8152600060048201526024015b60405180910390fd5b6000610489838333610d25565b9050836001600160a01b0316816001600160a01b0316146104d7576040516364283d7b60e01b81526001600160a01b0380861660048301526024820184905282166044820152606401610473565b50505050565b6008602052600090815260409020805481906104f890611ccd565b80601f016020809104026020016040519081016040528092919081815260200182805461052490611ccd565b80156105715780601f1061054657610100808354040283529160200191610571565b820191906000526020600020905b81548152906001019060200180831161055457829003601f168201915b50505050509080600101805461058690611ccd565b80601f01602080910402602001604051908101604052809291908181526020018280546105b290611ccd565b80156105ff5780601f106105d4576101008083540402835291602001916105ff565b820191906000526020600020905b8154815290600101906020018083116105e257829003601f168201915b5050505060028301546003840154600490940154929390926001600160a01b03909116915085565b610642838383604051806020016040528060008152506106d3565b505050565b600061037d82610647565b600061037d82610cdf565b60006001600160a01b038216610689576040516322718ad960e21b815260006004820152602401610473565b506001600160a01b031660009081526003602052604090205490565b6106ad610e1e565b6106b76000610e4b565b565b60606001805461039290611ccd565b610449338383610e9d565b6106de84848461044d565b6104d73385858585610f3c565b3360009081526009602052604081205460ff166107435760405162461bcd60e51b8152602060048201526016602482015275139bdd08185d5d1a1bdc9a5e9959081d1bc81b5a5b9d60521b6044820152606401610473565b61074d6007611067565b600061075860075490565b90506107648782611084565b6040805160a08101825287815260208082018890528183018790526001600160a01b03861660608301524260808301526000848152600890915291909120815181906107b09082611d4d565b50602082015160018201906107c59082611d4d565b50604082810151600283015560608301516003830180546001600160a01b0319166001600160a01b03928316179055608090930151600490920191909155519088169082907f8711bf998060223bc14747e7bd6f3c5eb3668cb94533826304f4aef58ed38e159061083b908a9089908990611e0d565b60405180910390a39695505050505050565b606061085882610647565b6108745760405162461bcd60e51b815260040161047390611e40565b600082815260086020526040808220815160a0810190925280548290829061089b90611ccd565b80601f01602080910402602001604051908101604052809291908181526020018280546108c790611ccd565b80156109145780601f106108e957610100808354040283529160200191610914565b820191906000526020600020905b8154815290600101906020018083116108f757829003601f168201915b5050505050815260200160018201805461092d90611ccd565b80601f016020809104026020016040519081016040528092919081815260200182805461095990611ccd565b80156109a65780601f1061097b576101008083540402835291602001916109a6565b820191906000526020600020905b81548152906001019060200180831161098957829003601f168201915b50505050508152602001600282015481526020016003820160009054906101000a90046001600160a01b03166001600160a01b03166001600160a01b031681526020016004820154815250509050600081600001518260200151610a0d846040015161109e565b610a1a85606001516111aa565b610a27866080015161109e565b604051602001610a3b959493929190611ea3565b60405160208183030381529060405290506000610a578261138c565b604051602001610a67919061202f565b60408051601f1981840301815291905295945050505050565b610a88610e1e565b6001600160a01b03919091166000908152600960205260409020805460ff1916911515919091179055565b6001600160a01b03918216600090815260056020908152604080832093909416825291909152205460ff1690565b6060806000806000610af286610647565b610b0e5760405162461bcd60e51b815260040161047390611e40565b600086815260086020526040808220815160a08101909252805482908290610b3590611ccd565b80601f0160208091040260200160405190810160405280929190818152602001828054610b6190611ccd565b8015610bae5780601f10610b8357610100808354040283529160200191610bae565b820191906000526020600020905b815481529060010190602001808311610b9157829003601f168201915b50505050508152602001600182018054610bc790611ccd565b80601f0160208091040260200160405190810160405280929190818152602001828054610bf390611ccd565b8015610c405780601f10610c1557610100808354040283529160200191610c40565b820191906000526020600020905b815481529060010190602001808311610c2357829003601f168201915b5050509183525050600282015460208083019190915260038301546001600160a01b03166040808401919091526004909301546060928301528351908401519284015191840151608090940151909b929a5090985091965090945092505050565b610ca9610e1e565b6001600160a01b038116610cd357604051631e4fbdf760e01b815260006004820152602401610473565b610cdc81610e4b565b50565b6000818152600260205260408120546001600160a01b03168061037d57604051637e27328960e01b815260048101849052602401610473565b61064283838360016116bb565b6000828152600260205260408120546001600160a01b0390811690831615610d5257610d528184866117c1565b6001600160a01b03811615610d9057610d6f6000856000806116bb565b6001600160a01b038116600090815260036020526040902080546000190190555b6001600160a01b03851615610dbf576001600160a01b0385166000908152600360205260409020805460010190555b60008481526002602052604080822080546001600160a01b0319166001600160a01b0389811691821790925591518793918516917fddf252ad1be2c89b69c2b068fc378daa952ba7f163c4a11628f55a4df523b3ef91a4949350505050565b6006546001600160a01b031633146106b75760405163118cdaa760e01b8152336004820152602401610473565b600680546001600160a01b038381166001600160a01b0319831681179093556040519116919082907f8be0079c531659141344cd1fd0a4f28419497f9722a3daafe3b4186f6b6457e090600090a35050565b6001600160a01b038216610ecf57604051630b61174360e31b81526001600160a01b0383166004820152602401610473565b6001600160a01b03838116600081815260056020908152604080832094871680845294825291829020805460ff191686151590811790915591519182527f17307eab39ab6107e8899845ad3d59bd9653f200f220920489ca2b5937696c31910160405180910390a3505050565b6001600160a01b0383163b1561106057604051630a85bd0160e11b81526001600160a01b0384169063150b7a0290610f7e908890889087908790600401612074565b6020604051808303816000875af1925050508015610fb9575060408051601f3d908101601f19168201909252610fb6918101906120b1565b60015b611022573d808015610fe7576040519150601f19603f3d011682016040523d82523d6000602084013e610fec565b606091505b50805160000361101a57604051633250574960e11b81526001600160a01b0385166004820152602401610473565b805181602001fd5b6001600160e01b03198116630a85bd0160e11b1461105e57604051633250574960e11b81526001600160a01b0385166004820152602401610473565b505b5050505050565b600181600001600082825461107c91906120e4565b909155505050565b610449828260405180602001604052806000815250611825565b6060816000036110c55750506040805180820190915260018152600360fc1b602082015290565b8160005b81156110ef57806110d9816120f7565b91506110e89050600a83612126565b91506110c9565b60008167ffffffffffffffff81111561110a5761110a611ae3565b6040519080825280601f01601f191660200182016040528015611134576020820181803683370190505b508593509050815b83156111a15761114d600a8561213a565b6111589060306120e4565b60f81b826111658361214e565b9250828151811061117857611178612165565b60200101906001600160f81b031916908160001a90535061119a600a85612126565b935061113c565b50949350505050565b604080518082018252601081526f181899199a1a9b1b9c1cb0b131b232b360811b60208201528151602a80825260608281019094526001600160a01b0385169291600091602082018180368337019050509050600360fc1b8160008151811061121557611215612165565b60200101906001600160f81b031916908160001a905350600f60fb1b8160018151811061124457611244612165565b60200101906001600160f81b031916908160001a90535060005b60148110156111a1578260048561127684600c6120e4565b6020811061128657611286612165565b1a60f81b6001600160f81b031916901c60f81c60ff16815181106112ac576112ac612165565b01602001516001600160f81b031916826112c783600261217b565b6112d29060026120e4565b815181106112e2576112e2612165565b60200101906001600160f81b031916908160001a905350828461130683600c6120e4565b6020811061131657611316612165565b825191901a600f1690811061132d5761132d612165565b01602001516001600160f81b0319168261134883600261217b565b6113539060036120e4565b8151811061136357611363612165565b60200101906001600160f81b031916908160001a90535080611384816120f7565b91505061125e565b6060600060405180606001604052806040815260200161219360409139835190915060008190036113ce57505060408051602081019091526000815292915050565b600060036113dd8360026120e4565b6113e79190612126565b6113f290600461217b565b67ffffffffffffffff81111561140a5761140a611ae3565b6040519080825280601f01601f191660200182016040528015611434576020820181803683370190505b509050806000805b848110156116af57600088828151811061145857611458612165565b016020015160f81c90506000866114708460016120e4565b1061147c5760006114a1565b896114888460016120e4565b8151811061149857611498612165565b016020015160f81c5b60ff1690506000876114b48560026120e4565b106114c05760006114e5565b8a6114cc8560026120e4565b815181106114dc576114dc612165565b016020015160f81c5b60ff169050600081600884901b601086901b1717905089601282901c8151811061151157611511612165565b602001015160f81c60f81b87878151811061152e5761152e612165565b60200101906001600160f81b031916908160001a90535089600c82901c603f168151811061155e5761155e612165565b01602001516001600160f81b031916876115798860016120e4565b8151811061158957611589612165565b60200101906001600160f81b031916908160001a905350886115ac8660016120e4565b106115bb57603d60f81b6115e4565b89600682901c603f16815181106115d4576115d4612165565b01602001516001600160f81b0319165b876115f08860026120e4565b8151811061160057611600612165565b60200101906001600160f81b031916908160001a905350886116238660026120e4565b1061163257603d60f81b611657565b8981603f168151811061164757611647612165565b01602001516001600160f81b0319165b876116638860036120e4565b8151811061167357611673612165565b60200101906001600160f81b031916908160001a9053506116956004876120e4565b9550505050506003816116a891906120e4565b905061143c565b50919695505050505050565b80806116cf57506001600160a01b03821615155b156117915760006116df84610cdf565b90506001600160a01b0383161580159061170b5750826001600160a01b0316816001600160a01b031614155b801561171e575061171c8184610ab3565b155b156117475760405163a9fbf51f60e01b81526001600160a01b0384166004820152602401610473565b811561178f5783856001600160a01b0316826001600160a01b03167f8c5be1e5ebec7d5bd14f71427d1e84f3dd0314c0f7b2291e5b200ac8c7c3b92560405160405180910390a45b505b5050600090815260046020526040902080546001600160a01b0319166001600160a01b0392909216919091179055565b6117cc83838361183d565b610642576001600160a01b0383166117fa57604051637e27328960e01b815260048101829052602401610473565b60405163177e802f60e01b81526001600160a01b038316600482015260248101829052604401610473565b61182f83836118a3565b610642336000858585610f3c565b60006001600160a01b0383161580159061189b5750826001600160a01b0316846001600160a01b0316148061187757506118778484610ab3565b8061189b57506000828152600460205260409020546001600160a01b038481169116145b949350505050565b6001600160a01b0382166118cd57604051633250574960e11b815260006004820152602401610473565b60006118db83836000610d25565b90506001600160a01b03811615610642576040516339e3563760e11b815260006004820152602401610473565b6001600160e01b031981168114610cdc57600080fd5b60006020828403121561193057600080fd5b813561193b81611908565b9392505050565b60005b8381101561195d578181015183820152602001611945565b50506000910152565b6000815180845261197e816020860160208601611942565b601f01601f19169290920160200192915050565b60208152600061193b6020830184611966565b6000602082840312156119b757600080fd5b5035919050565b80356001600160a01b03811681146119d557600080fd5b919050565b600080604083850312156119ed57600080fd5b6119f6836119be565b946020939093013593505050565b600080600060608486031215611a1957600080fd5b611a22846119be565b9250611a30602085016119be565b9150604084013590509250925092565b60a081526000611a5360a0830188611966565b8281036020840152611a658188611966565b604084019690965250506001600160a01b0392909216606083015260809091015292915050565b600060208284031215611a9e57600080fd5b61193b826119be565b60008060408385031215611aba57600080fd5b611ac3836119be565b915060208301358015158114611ad857600080fd5b809150509250929050565b634e487b7160e01b600052604160045260246000fd5b600067ffffffffffffffff80841115611b1457611b14611ae3565b604051601f8501601f19908116603f01168101908282118183101715611b3c57611b3c611ae3565b81604052809350858152868686011115611b5557600080fd5b858560208301376000602087830101525050509392505050565b60008060008060808587031215611b8557600080fd5b611b8e856119be565b9350611b9c602086016119be565b925060408501359150606085013567ffffffffffffffff811115611bbf57600080fd5b8501601f81018713611bd057600080fd5b611bdf87823560208401611af9565b91505092959194509250565b600082601f830112611bfc57600080fd5b61193b83833560208501611af9565b600080600080600060a08688031215611c2357600080fd5b611c2c866119be565b9450602086013567ffffffffffffffff80821115611c4957600080fd5b611c5589838a01611beb565b95506040880135915080821115611c6b57600080fd5b50611c7888828901611beb565b93505060608601359150611c8e608087016119be565b90509295509295909350565b60008060408385031215611cad57600080fd5b611cb6836119be565b9150611cc4602084016119be565b90509250929050565b600181811c90821680611ce157607f821691505b602082108103611d0157634e487b7160e01b600052602260045260246000fd5b50919050565b601f82111561064257600081815260208120601f850160051c81016020861015611d2e5750805b601f850160051c820191505b8181101561105e57828155600101611d3a565b815167ffffffffffffffff811115611d6757611d67611ae3565b611d7b81611d758454611ccd565b84611d07565b602080601f831160018114611db05760008415611d985750858301515b600019600386901b1c1916600185901b17855561105e565b600085815260208120601f198616915b82811015611ddf57888601518255948401946001909101908401611dc0565b5085821015611dfd5787850151600019600388901b60f8161c191681555b5050505050600190811b01905550565b606081526000611e206060830186611966565b6020830194909452506001600160a01b0391909116604090910152919050565b60208082526027908201527f616368696576656d656e7420717565727920666f72206e6f6e6578697374656e6040820152663a103a37b5b2b760c91b606082015260800190565b60008151611e99818560208601611942565b9290920192915050565b693d913730b6b2911d101160b11b81528551600090611ec981600a850160208b01611942565b61088b60f21b600a9184019182018190526f113232b9b1b934b83a34b7b7111d101160811b600c8301528751611f0681601c850160208c01611942565b601c9201918201526e2261747472696275746573223a205b60881b601e8201527f7b2274726169745f74797065223a202253657373696f6e204944222c20227661602d82015266363ab2911d101160c91b604d820152612023612015612007612001611fc9611f7f611fc3611f8e8260548a018f611e87565b62089f4b60ea1b815260030190565b7f7b2274726169745f74797065223a20224d656e746f72222c202276616c7565228152621d101160e91b602082015260230190565b8b611e87565b7f7b2274726169745f74797065223a202254696d657374616d70222c202276616c8152653ab2911d101160d11b602082015260260190565b87611e87565b61227d60f01b815260020190565b615d7d60f01b815260020190565b98975050505050505050565b7f646174613a6170706c69636174696f6e2f6a736f6e3b6261736536342c00000081526000825161206781601d850160208701611942565b91909101601d0192915050565b6001600160a01b03858116825284166020820152604081018390526080606082018190526000906120a790830184611966565b9695505050505050565b6000602082840312156120c357600080fd5b815161193b81611908565b634e487b7160e01b600052601160045260246000fd5b8082018082111561037d5761037d6120ce565b600060018201612109576121096120ce565b5060010190565b634e487b7160e01b600052601260045260246000fd5b60008261213557612135612110565b500490565b60008261214957612149612110565b500690565b60008161215d5761215d6120ce565b506000190190565b634e487b7160e01b600052603260045260246000fd5b808202811582820484141761037d5761037d6120ce56fe4142434445464748494a4b4c4d4e4f505152535455565758595a6162636465666768696a6b6c6d6e6f707172737475767778797a303132333435363738392b2fa26469706673582212200074b1291121edef9e7841853e1344cfd591b36f657d20a4837f52ef3f6b71b364736f6c63430008140033",
  "linkReferences": {},
  "deployedLinkReferences": {}
}